{
  "metamask": {
    "isInitialized": true,
    "isUnlocked": true,
    "featureFlags": {"betaUI": true},
    "rpcTarget": "https://rawtestrpc.metamask.io/",
    "identities": {
      "0xfdea65c8e26263f6d9a1b5de9555d2931a33b825": {
        "address": "0xfdea65c8e26263f6d9a1b5de9555d2931a33b825",
        "name": "Send Account 1"
      },
      "0xc5b8dbac4c1d3f152cdeb400e2313f309c410acb": {
        "address": "0xc5b8dbac4c1d3f152cdeb400e2313f309c410acb",
        "name": "Send Account 2"
      },
      "0x2f8d4a878cfa04a6e60d46362f5644deab66572d": {
        "address": "0x2f8d4a878cfa04a6e60d46362f5644deab66572d",
        "name": "Send Account 3"
      },
      "0xd85a4b6a394794842887b8284293d69163007bbb": {
        "address": "0xd85a4b6a394794842887b8284293d69163007bbb",
        "name": "Send Account 4"
      }
    },
    "currentCurrency": "USD",
    "conversionRate": 1200.88200327,
    "conversionDate": 1489013762,
    "noActiveNotices": true,
    "frequentRpcList": [],
    "network": "1",
    "accounts": {
      "0xfdea65c8e26263f6d9a1b5de9555d2931a33b825": {
        "code": "0x",
        "balance": "0x47c9d71831c76efe",
        "nonce": "0x1b",
        "address": "0xfdea65c8e26263f6d9a1b5de9555d2931a33b825"
      },
      "0xc5b8dbac4c1d3f152cdeb400e2313f309c410acb": {
        "code": "0x",
        "balance": "0x37452b1315889f80",
        "nonce": "0xa",
        "address": "0xc5b8dbac4c1d3f152cdeb400e2313f309c410acb"
      },
      "0x2f8d4a878cfa04a6e60d46362f5644deab66572d": {
        "code": "0x",
        "balance": "0x30c9d71831c76efe",
        "nonce": "0x1c",
        "address": "0x2f8d4a878cfa04a6e60d46362f5644deab66572d"
      },
      "0xd85a4b6a394794842887b8284293d69163007bbb": {
        "code": "0x",
        "balance": "0x0",
        "nonce": "0x0",
        "address": "0xd85a4b6a394794842887b8284293d69163007bbb"
      }
    },
    "addressBook": [
      {
        "address": "0x06195827297c7a80a443b6894d3bdb8824b43896",
        "name": "Address Book Account 1"
      }
    ],
    "tokens": [],
    "transactions": {},
    "selectedAddressTxList": [
      {"err":{"message":"Error: [ethjs-rpc] rpc error with payload {\"id\":8726092611900,\"jsonrpc\":\"2.0\",\"params\":[\"0xf8610384773594008094f45d68f31b3c9ac84ff0d07b86c59b753a60b1e3808029a052e5246c9a404f756a246b8cec545099741aeb4e6e0add935a5b7a366fa88f95a0538eaa2421e50377c534244dcdcd15ace00bf9c0adbd9eb162baae2b9e89a36f\"],\"method\":\"eth_sendRawTransaction\"} Error: intrinsic gas too low","stack":"Error: [ethjs-rpc] rpc error with payload {\"id\":8726092611900,\"jsonrpc\":\"2.0\",\"params\":[\"0xf8610384773594008094f45d68f31b3c9ac84ff0d07b86c59b753a60b1e3808029a052e5246c9a404f756a246b8cec545099741aeb4e6e0add935a5b7a366fa88f95a0538eaa2421e50377c534244dcdcd15ace00bf9c0adbd9eb162baae2b9e89a36f\"],\"method\":\"eth_sendRawTransaction\"} Error: intrinsic gas too low\n    at chrome-extension://kedndjddlegigbgiknllkjcmbpcnoakf/scripts/background.js:72360:28\n    at chrome-extension://kedndjddlegigbgiknllkjcmbpcnoakf/scripts/background.js:103521:9\n    at chrome-extension://kedndjddlegigbgiknllkjcmbpcnoakf/scripts/background.js:27180:16\n    at replenish (chrome-extension://kedndjddlegigbgiknllkjcmbpcnoakf/scripts/background.js:27024:25)\n    at iterateeCallback (chrome-extension://kedndjddlegigbgiknllkjcmbpcnoakf/scripts/background.js:27014:17)\n    at chrome-extension://kedndjddlegigbgiknllkjcmbpcnoakf/scripts/background.js:27196:16\n    at chrome-extension://kedndjddlegigbgiknllkjcmbpcnoakf/scripts/background.js:103503:9\n    at chrome-extension://kedndjddlegigbgiknllkjcmbpcnoakf/scripts/background.js:27315:16\n    at replenish (chrome-extension://kedndjddlegigbgiknllkjcmbpcnoakf/scripts/background.js:27029:17)\n    at iterateeCallback (chrome-extension://kedndjddlegigbgiknllkjcmbpcnoakf/scripts/background.js:27014:17)\n    at chrome-extension://kedndjddlegigbgiknllkjcmbpcnoakf/scripts/background.js:27196:16\n    at chrome-extension://kedndjddlegigbgiknllkjcmbpcnoakf/scripts/background.js:103503:9\n    at chrome-extension://kedndjddlegigbgiknllkjcmbpcnoakf/scripts/background.js:27315:16\n    at replenish (chrome-extension://kedndjddlegigbgiknllkjcmbpcnoakf/scripts/background.js:27029:17)\n    at iterateeCallback (chrome-extension://kedndjddlegigbgiknllkjcmbpcnoakf/scripts/background.js:27014:17)\n    at chrome-extension://kedndjddlegigbgiknllkjcmbpcnoakf/scripts/background.js:27196:16\n    at chrome-extension://kedndjddlegigbgiknllkjcmbpcnoakf/scripts/background.js:106691:25\n    at chrome-extension://kedndjddlegigbgiknllkjcmbpcnoakf/scripts/background.js:103501:9\n    at chrome-extension://kedndjddlegigbgiknllkjcmbpcnoakf/scripts/background.js:27315:16\n    at replenish (chrome-extension://kedndjddlegigbgiknllkjcmbpcnoakf/scripts/background.js:27029:17)\n    at iterateeCallback (chrome-extension://kedndjddlegigbgiknllkjcmbpcnoakf/scripts/background.js:27014:17)\n    at chrome-extension://kedndjddlegigbgiknllkjcmbpcnoakf/scripts/background.js:27196:16\n    at chrome-extension://kedndjddlegigbgiknllkjcmbpcnoakf/scripts/background.js:103503:9\n    at chrome-extension://kedndjddlegigbgiknllkjcmbpcnoakf/scripts/background.js:27315:16\n    at replenish (chrome-extension://kedndjddlegigbgiknllkjcmbpcnoakf/scripts/background.js:27029:17)\n    at iterateeCallback (chrome-extension://kedndjddlegigbgiknllkjcmbpcnoakf/scripts/background.js:27014:17)\n    at chrome-extension://kedndjddlegigbgiknllkjcmbpcnoakf/scripts/background.js:27196:16\n    at chrome-extension://kedndjddlegigbgiknllkjcmbpcnoakf/scripts/background.js:103503:9\n    at chrome-extension://kedndjddlegigbgiknllkjcmbpcnoakf/scripts/background.js:27315:16\n    at replenish (chrome-extension://kedndjddlegigbgiknllkjcmbpcnoakf/scripts/background.js:27029:17)\n    at iterateeCallback (chrome-extension://kedndjddlegigbgiknllkjcmbpcnoakf/scripts/background.js:27014:17)\n    at chrome-extension://kedndjddlegigbgiknllkjcmbpcnoakf/scripts/background.js:27196:16\n    at chrome-extension://kedndjddlegigbgiknllkjcmbpcnoakf/scripts/background.js:103503:9\n    at chrome-extension://kedndjddlegigbgiknllkjcmbpcnoakf/scripts/background.js:27315:16\n    at replenish (chrome-extension://kedndjddlegigbgiknllkjcmbpcnoakf/scripts/background.js:27029:17)\n    at iterateeCallback (chrome-extension://kedndjddlegigbgiknllkjcmbpcnoakf/scripts/background.js:27014:17)\n    at chrome-extension://kedndjddlegigbgiknllkjcmbpcnoakf/scripts/background.js:27196:16\n    at chrome-extension://kedndjddlegigbgiknllkjcmbpcnoakf/scripts/background.js:103503:9\n    at chrome-extension://kedndjddlegigbgiknllkjcmbpcnoakf/scripts/background.js:27315:16\n    at replenish (chrome-extension://kedndjddlegigbgiknllkjcmbpcnoakf/scripts/background.js:27029:17)\n    at iterateeCallback (chrome-extension://kedndjddlegigbgiknllkjcmbpcnoakf/scripts/background.js:27014:17)\n    at chrome-extension://kedndjddlegigbgiknllkjcmbpcnoakf/scripts/background.js:27196:16\n    at chrome-extension://kedndjddlegigbgiknllkjcmbpcnoakf/scripts/background.js:103503:9\n    at chrome-extension://kedndjddlegigbgiknllkjcmbpcnoakf/scripts/background.js:27315:16\n    at replenish (chrome-extension://kedndjddlegigbgiknllkjcmbpcnoakf/scripts/background.js:27029:17)\n    at chrome-extension://kedndjddlegigbgiknllkjcmbpcnoakf/scripts/background.js:27033:9\n    at eachLimit (chrome-extension://kedndjddlegigbgiknllkjcmbpcnoakf/scripts/background.js:26723:36)\n    at chrome-extension://kedndjddlegigbgiknllkjcmbpcnoakf/scripts/background.js:26937:16\n    at end (chrome-extension://kedndjddlegigbgiknllkjcmbpcnoakf/scripts/background.js:103498:5)\n    at chrome-extension://kedndjddlegigbgiknllkjcmbpcnoakf/scripts/background.js:106913:40"},"estimatedGas":"0xcf08","gasLimitSpecified":true,"gasPriceSpecified":true,"history":[{"id":4068311466147836,"loadingDefaults":true,"metamaskNetworkId":"1","status":"unapproved","time":1522378334455,"txParams":{"from":"0x5b1cbd5636d484bf1cb6927a9425db9e7dc73ce4","gas":"0xcf08","gasPrice":"0x77359400","to":"0xf45d68f31b3c9ac84ff0d07b86c59b753a60b1e3","value":"0x0"}},[{"op":"replace","path":"/loadingDefaults","value":false},{"op":"add","path":"/gasPriceSpecified","value":true},{"op":"add","path":"/gasLimitSpecified","value":true},{"op":"add","path":"/estimatedGas","value":"0xcf08"}],[{"note":"confTx: user approved transaction","op":"replace","path":"/txParams/gas","value":"0x0"}],[{"note":"txStateManager: setting status to approved","op":"replace","path":"/status","value":"approved"}],[{"note":"transactions#approveTransaction","op":"add","path":"/txParams/nonce","value":"0x3"},{"op":"add","path":"/nonceDetails","value":{"local":{"details":{"highest":3,"startPoint":3},"name":"local","nonce":3},"network":{"details":{"baseCount":3},"name":"network","nonce":3},"params":{"highestLocalNonce":3,"highestSuggested":3,"nextNetworkNonce":3}}}],[{"note":"txStateManager: setting status to signed","op":"add","path":"/txParams/chainId","value":"0x3"},{"op":"replace","path":"/status","value":"signed"}],[{"note":"transactions#publishTransaction","op":"add","path":"/rawTx","value":"0xf8610384773594008094f45d68f31b3c9ac84ff0d07b86c59b753a60b1e3808029a052e5246c9a404f756a246b8cec545099741aeb4e6e0add935a5b7a366fa88f95a0538eaa2421e50377c534244dcdcd15ace00bf9c0adbd9eb162baae2b9e89a36f"}],[{"op":"add","path":"/err","value":{"message":"Error: [ethjs-rpc] rpc error with payload {\"id\":8726092611900,\"jsonrpc\":\"2.0\",\"params\":[\"0xf8610384773594008094f45d68f31b3c9ac84ff0d07b86c59b753a60b1e3808029a052e5246c9a404f756a246b8cec545099741aeb4e6e0add935a5b7a366fa88f95a0538eaa2421e50377c534244dcdcd15ace00bf9c0adbd9eb162baae2b9e89a36f\"],\"method\":\"eth_sendRawTransaction\"} Error: intrinsic gas too low","stack":"Error: [ethjs-rpc] rpc error with payload {\"id\":8726092611900,\"jsonrpc\":\"2.0\",\"params\":[\"0xf8610384773594008094f45d68f31b3c9ac84ff0d07b86c59b753a60b1e3808029a052e5246c9a404f756a246b8cec545099741aeb4e6e0add935a5b7a366fa88f95a0538eaa2421e50377c534244dcdcd15ace00bf9c0adbd9eb162baae2b9e89a36f\"],\"method\":\"eth_sendRawTransaction\"} Error: intrinsic gas too low\n    at chrome-extension://kedndjddlegigbgiknllkjcmbpcnoakf/scripts/background.js:72360:28\n    at chrome-extension://kedndjddlegigbgiknllkjcmbpcnoakf/scripts/background.js:103521:9\n    at chrome-extension://kedndjddlegigbgiknllkjcmbpcnoakf/scripts/background.js:27180:16\n    at replenish (chrome-extension://kedndjddlegigbgiknllkjcmbpcnoakf/scripts/background.js:27024:25)\n    at iterateeCallback (chrome-extension://kedndjddlegigbgiknllkjcmbpcnoakf/scripts/background.js:27014:17)\n    at chrome-extension://kedndjddlegigbgiknllkjcmbpcnoakf/scripts/background.js:27196:16\n    at chrome-extension://kedndjddlegigbgiknllkjcmbpcnoakf/scripts/background.js:103503:9\n    at chrome-extension://kedndjddlegigbgiknllkjcmbpcnoakf/scripts/background.js:27315:16\n    at replenish (chrome-extension://kedndjddlegigbgiknllkjcmbpcnoakf/scripts/background.js:27029:17)\n    at iterateeCallback (chrome-extension://kedndjddlegigbgiknllkjcmbpcnoakf/scripts/background.js:27014:17)\n    at chrome-extension://kedndjddlegigbgiknllkjcmbpcnoakf/scripts/background.js:27196:16\n    at chrome-extension://kedndjddlegigbgiknllkjcmbpcnoakf/scripts/background.js:103503:9\n    at chrome-extension://kedndjddlegigbgiknllkjcmbpcnoakf/scripts/background.js:27315:16\n    at replenish (chrome-extension://kedndjddlegigbgiknllkjcmbpcnoakf/scripts/background.js:27029:17)\n    at iterateeCallback (chrome-extension://kedndjddlegigbgiknllkjcmbpcnoakf/scripts/background.js:27014:17)\n    at chrome-extension://kedndjddlegigbgiknllkjcmbpcnoakf/scripts/background.js:27196:16\n    at chrome-extension://kedndjddlegigbgiknllkjcmbpcnoakf/scripts/background.js:106691:25\n    at chrome-extension://kedndjddlegigbgiknllkjcmbpcnoakf/scripts/background.js:103501:9\n    at chrome-extension://kedndjddlegigbgiknllkjcmbpcnoakf/scripts/background.js:27315:16\n    at replenish (chrome-extension://kedndjddlegigbgiknllkjcmbpcnoakf/scripts/background.js:27029:17)\n    at iterateeCallback (chrome-extension://kedndjddlegigbgiknllkjcmbpcnoakf/scripts/background.js:27014:17)\n    at chrome-extension://kedndjddlegigbgiknllkjcmbpcnoakf/scripts/background.js:27196:16\n    at chrome-extension://kedndjddlegigbgiknllkjcmbpcnoakf/scripts/background.js:103503:9\n    at chrome-extension://kedndjddlegigbgiknllkjcmbpcnoakf/scripts/background.js:27315:16\n    at replenish (chrome-extension://kedndjddlegigbgiknllkjcmbpcnoakf/scripts/background.js:27029:17)\n    at iterateeCallback (chrome-extension://kedndjddlegigbgiknllkjcmbpcnoakf/scripts/background.js:27014:17)\n    at chrome-extension://kedndjddlegigbgiknllkjcmbpcnoakf/scripts/background.js:27196:16\n    at chrome-extension://kedndjddlegigbgiknllkjcmbpcnoakf/scripts/background.js:103503:9\n    at chrome-extension://kedndjddlegigbgiknllkjcmbpcnoakf/scripts/background.js:27315:16\n    at replenish (chrome-extension://kedndjddlegigbgiknllkjcmbpcnoakf/scripts/background.js:27029:17)\n    at iterateeCallback (chrome-extension://kedndjddlegigbgiknllkjcmbpcnoakf/scripts/background.js:27014:17)\n    at chrome-extension://kedndjddlegigbgiknllkjcmbpcnoakf/scripts/background.js:27196:16\n    at chrome-extension://kedndjddlegigbgiknllkjcmbpcnoakf/scripts/background.js:103503:9\n    at chrome-extension://kedndjddlegigbgiknllkjcmbpcnoakf/scripts/background.js:27315:16\n    at replenish (chrome-extension://kedndjddlegigbgiknllkjcmbpcnoakf/scripts/background.js:27029:17)\n    at iterateeCallback (chrome-extension://kedndjddlegigbgiknllkjcmbpcnoakf/scripts/background.js:27014:17)\n    at chrome-extension://kedndjddlegigbgiknllkjcmbpcnoakf/scripts/background.js:27196:16\n    at chrome-extension://kedndjddlegigbgiknllkjcmbpcnoakf/scripts/background.js:103503:9\n    at chrome-extension://kedndjddlegigbgiknllkjcmbpcnoakf/scripts/background.js:27315:16\n    at replenish (chrome-extension://kedndjddlegigbgiknllkjcmbpcnoakf/scripts/background.js:27029:17)\n    at iterateeCallback (chrome-extension://kedndjddlegigbgiknllkjcmbpcnoakf/scripts/background.js:27014:17)\n    at chrome-extension://kedndjddlegigbgiknllkjcmbpcnoakf/scripts/background.js:27196:16\n    at chrome-extension://kedndjddlegigbgiknllkjcmbpcnoakf/scripts/background.js:103503:9\n    at chrome-extension://kedndjddlegigbgiknllkjcmbpcnoakf/scripts/background.js:27315:16\n    at replenish (chrome-extension://kedndjddlegigbgiknllkjcmbpcnoakf/scripts/background.js:27029:17)\n    at chrome-extension://kedndjddlegigbgiknllkjcmbpcnoakf/scripts/background.js:27033:9\n    at eachLimit (chrome-extension://kedndjddlegigbgiknllkjcmbpcnoakf/scripts/background.js:26723:36)\n    at chrome-extension://kedndjddlegigbgiknllkjcmbpcnoakf/scripts/background.js:26937:16\n    at end (chrome-extension://kedndjddlegigbgiknllkjcmbpcnoakf/scripts/background.js:103498:5)\n    at chrome-extension://kedndjddlegigbgiknllkjcmbpcnoakf/scripts/background.js:106913:40"}}]],"id":4068311466147836,"loadingDefaults":false,"metamaskNetworkId":"1","nonceDetails":{"local":{"details":{"highest":3,"startPoint":3},"name":"local","nonce":3},"network":{"details":{"baseCount":3},"name":"network","nonce":3},"params":{"highestLocalNonce":3,"highestSuggested":3,"nextNetworkNonce":3}},"rawTx":"0xf8610384773594008094f45d68f31b3c9ac84ff0d07b86c59b753a60b1e3808029a052e5246c9a404f756a246b8cec545099741aeb4e6e0add935a5b7a366fa88f95a0538eaa2421e50377c534244dcdcd15ace00bf9c0adbd9eb162baae2b9e89a36f","status":"failed","time":1522378334455,"txParams":{"chainId":"0x3","from":"0x5b1cbd5636d484bf1cb6927a9425db9e7dc73ce4","gas":"0x0","gasPrice":"0x77359400","nonce":"0x0","to":"0xf45d68f31b3c9ac84ff0d07b86c59b753a60b1e3","value":"0x0"}},
      {"id":2315363930841933,"time":1522378572149,"status":"approved","metamaskNetworkId":"1","loadingDefaults":false,"txParams":{"from":"0x5b1cbd5636d484bf1cb6927a9425db9e7dc73ce4","to":"0xf45d68f31b3c9ac84ff0d07b86c59b753a60b1e3","value":"0x0","gas":"0x0","gasPrice":"0x5f5e100"},"history":[{"id":2315363930841933,"time":1522378572149,"status":"unapproved","metamaskNetworkId":"1","loadingDefaults":true,"txParams":{"from":"0x5b1cbd5636d484bf1cb6927a9425db9e7dc73ce4","to":"0xf45d68f31b3c9ac84ff0d07b86c59b753a60b1e3","value":"0x0","gas":"0xcf08","gasPrice":"0x5f5e100"}},[{"op":"replace","path":"/loadingDefaults","value":false},{"op":"add","path":"/gasPriceSpecified","value":true},{"op":"add","path":"/gasLimitSpecified","value":true},{"op":"add","path":"/estimatedGas","value":"0xcf08"}],[{"op":"replace","path":"/txParams/gas","value":"0x0","note":"confTx: user approved transaction"}],[{"op":"replace","path":"/status","value":"approved","note":"txStateManager: setting status to approved"}]],"gasPriceSpecified":true,"gasLimitSpecified":true,"estimatedGas":"0xcf08"},
      {"estimatedGas":"8d41","firstRetryBlockNumber":"0x2cbc70","gasLimitSpecified":false,"gasPriceSpecified":false,"hash":"0xfbd997bf9bb85ca1598952ca23e7910502d527e06cb6ee1bbe7e7dd59d6909cd","history":[{"id":2079438776801906,"loadingDefaults":true,"metamaskNetworkId":"1","status":"unapproved","time":1522346270251,"txParams":{"data":"0xa9059cbb000000000000000000000000e7884118ee52ec3f4eef715cb022279d7d4181a9000000000000000000000000000000000000000000000000000000000000000b","from":"0x5b1cbd5636d484bf1cb6927a9425db9e7dc73ce4","to":"0x66f30b996a7d345cd00badcfe75e81e25dc5e1eb"}},[{"op":"add","path":"/txParams/gasPrice","value":"0x37e11d600"},{"op":"add","path":"/txParams/value","value":"0x0"},{"op":"add","path":"/txParams/gas","value":"0xd3e1"},{"op":"replace","path":"/loadingDefaults","value":false},{"op":"add","path":"/gasPriceSpecified","value":false},{"op":"add","path":"/gasLimitSpecified","value":false},{"op":"add","path":"/estimatedGas","value":"8d41"}],[{"note":"confTx: user approved transaction","op":"replace","path":"/txParams/gasPrice","value":"0x5f5e100"}],[{"note":"txStateManager: setting status to approved","op":"replace","path":"/status","value":"approved"}],[{"note":"transactions#approveTransaction","op":"add","path":"/txParams/nonce","value":"0x2"},{"op":"add","path":"/nonceDetails","value":{"local":{"details":{"highest":2,"startPoint":2},"name":"local","nonce":2},"network":{"details":{"baseCount":2},"name":"network","nonce":2},"params":{"highestLocalNonce":2,"highestSuggested":2,"nextNetworkNonce":2}}}],[{"note":"txStateManager: setting status to signed","op":"add","path":"/txParams/chainId","value":"0x3"},{"op":"replace","path":"/status","value":"signed"}],[{"note":"transactions#publishTransaction","op":"add","path":"/rawTx","value":"0xf8a8028405f5e10082d3e19466f30b996a7d345cd00badcfe75e81e25dc5e1eb80b844a9059cbb000000000000000000000000e7884118ee52ec3f4eef715cb022279d7d4181a9000000000000000000000000000000000000000000000000000000000000000b2aa05cb38a3a68e49008da2e93839f6dedeb96b1630c2a73c4cf5eb3fcc74299a100a039f17c0807469bd101165fa0749dc7065832b4a7c3a382b6cf7e29228c2a683d"}],[{"note":"transactions#setTxHash","op":"add","path":"/hash","value":"0xfbd997bf9bb85ca1598952ca23e7910502d527e06cb6ee1bbe7e7dd59d6909cd"}],[{"note":"txStateManager - add submitted time stamp","op":"add","path":"/submittedTime","value":1522346282571}],[{"note":"txStateManager: setting status to submitted","op":"replace","path":"/status","value":"submitted"}],[{"note":"transactions/pending-tx-tracker#event: tx:block-update","op":"add","path":"/firstRetryBlockNumber","value":"0x2cbc70"}],[{"note":"txStateManager: setting status to confirmed","op":"replace","path":"/status","value":"confirmed"}]],"id":2079438776801906,"loadingDefaults":false,"metamaskNetworkId":"1","nonceDetails":{"local":{"details":{"highest":2,"startPoint":2},"name":"local","nonce":2},"network":{"details":{"baseCount":2},"name":"network","nonce":2},"params":{"highestLocalNonce":2,"highestSuggested":2,"nextNetworkNonce":2}},"rawTx":"0xf8a8028405f5e10082d3e19466f30b996a7d345cd00badcfe75e81e25dc5e1eb80b844a9059cbb000000000000000000000000e7884118ee52ec3f4eef715cb022279d7d4181a9000000000000000000000000000000000000000000000000000000000000000b2aa05cb38a3a68e49008da2e93839f6dedeb96b1630c2a73c4cf5eb3fcc74299a100a039f17c0807469bd101165fa0749dc7065832b4a7c3a382b6cf7e29228c2a683d","status":"confirmed","submittedTime":1522346282571,"time":1522346270251,"txParams":{"chainId":"0x3","data":"0xa9059cbb000000000000000000000000e7884118ee52ec3f4eef715cb022279d7d4181a9000000000000000000000000000000000000000000000000000000000000000b","from":"0x5b1cbd5636d484bf1cb6927a9425db9e7dc73ce4","gas":"0xd3e1","gasPrice":"0x5f5e100","nonce":"0x2","to":"0x66f30b996a7d345cd00badcfe75e81e25dc5e1eb","value":"0x0"}},
      {"id":4087002078467524,"time":1522379587999,"status":"submitted","metamaskNetworkId":"1","loadingDefaults":false,"txParams":{"from":"0x5b1cbd5636d484bf1cb6927a9425db9e7dc73ce4","to":"0xf45d68f31b3c9ac84ff0d07b86c59b753a60b1e3","value":"0x0","gas":"0xcf08","gasPrice":"0x5f5e100","nonce":"0x0","chainId":"0x3"},"history":[{"id":4087002078467524,"time":1522379587999,"status":"unapproved","metamaskNetworkId":"1","loadingDefaults":true,"txParams":{"from":"0x5b1cbd5636d484bf1cb6927a9425db9e7dc73ce4","to":"0xf45d68f31b3c9ac84ff0d07b86c59b753a60b1e3","value":"0x0","gas":"0xcf08","gasPrice":"0x5f5e100"}},[{"op":"replace","path":"/loadingDefaults","value":false},{"op":"add","path":"/gasPriceSpecified","value":true},{"op":"add","path":"/gasLimitSpecified","value":true},{"op":"add","path":"/estimatedGas","value":"0xcf08"}],[],[{"op":"replace","path":"/status","value":"approved","note":"txStateManager: setting status to approved"}],[{"op":"add","path":"/txParams/nonce","value":"0x3","note":"transactions#approveTransaction"},{"op":"add","path":"/nonceDetails","value":{"params":{"highestLocalNonce":3,"highestSuggested":3,"nextNetworkNonce":3},"local":{"name":"local","nonce":3,"details":{"startPoint":3,"highest":3}},"network":{"name":"network","nonce":3,"details":{"baseCount":3}}}}],[{"op":"add","path":"/txParams/chainId","value":"0x3","note":"txStateManager: setting status to signed"},{"op":"replace","path":"/status","value":"signed"}],[{"op":"add","path":"/rawTx","value":"0xf863038405f5e10082cf0894f45d68f31b3c9ac84ff0d07b86c59b753a60b1e3808029a0d64ed427733ef67fe788fe85d3cfe51c43cfc83d07fa4ab8af5d3bc8c8199895a02699c131cc0ffcf842b54776ac611bdd165fdb87dd3ecff1554ec8da1bf3ff39","note":"transactions#publishTransaction"}],[{"op":"add","path":"/hash","value":"0x52f0929fc143d76f4e6255d95cebfc76b74f43726191bd4081a5ae9bd6c1fa4a","note":"transactions#setTxHash"}],[{"op":"add","path":"/submittedTime","value":1522379590158,"note":"txStateManager - add submitted time stamp"}],[{"op":"replace","path":"/status","value":"submitted","note":"txStateManager: setting status to submitted"}],[{"op":"add","path":"/firstRetryBlockNumber","value":"0x2cc718","note":"transactions/pending-tx-tracker#event: tx:block-update"}]],"gasPriceSpecified":true,"gasLimitSpecified":true,"estimatedGas":"0xcf08","nonceDetails":{"params":{"highestLocalNonce":3,"highestSuggested":3,"nextNetworkNonce":3},"local":{"name":"local","nonce":3,"details":{"startPoint":3,"highest":3}},"network":{"name":"network","nonce":3,"details":{"baseCount":3}}},"rawTx":"0xf863038405f5e10082cf0894f45d68f31b3c9ac84ff0d07b86c59b753a60b1e3808029a0d64ed427733ef67fe788fe85d3cfe51c43cfc83d07fa4ab8af5d3bc8c8199895a02699c131cc0ffcf842b54776ac611bdd165fdb87dd3ecff1554ec8da1bf3ff39","hash":"0x52f0929fc143d76f4e6255d95cebfc76b74f43726191bd4081a5ae9bd6c1fa4a","submittedTime":1522379590158,"firstRetryBlockNumber":"0x2cc718"},
      {"estimatedGas":"0x5208","gasLimitSpecified":false,"gasPriceSpecified":false,"history":[{"id":6301441591225658,"loadingDefaults":true,"metamaskNetworkId":"1","status":"unapproved","time":1522346051227,"txParams":{"from":"0x5b1cbd5636d484bf1cb6927a9425db9e7dc73ce4","to":"0x81b7e08f65bdf5648606c89998a9cc8164397647","value":"0xde0b6b3a7640000"}},[{"op":"add","path":"/txParams/gasPrice","value":"0x4a817c800"},{"op":"add","path":"/txParams/gas","value":"0x5208"},{"op":"replace","path":"/loadingDefaults","value":false},{"op":"add","path":"/gasPriceSpecified","value":false},{"op":"add","path":"/gasLimitSpecified","value":false},{"op":"add","path":"/simpleSend","value":true},{"op":"add","path":"/estimatedGas","value":"0x5208"}],[{"note":"txStateManager: setting status to rejected","op":"replace","path":"/status","value":"rejected"}]],"id":6301441591225658,"loadingDefaults":false,"metamaskNetworkId":"1","simpleSend":true,"status":"rejected","time":1522346051227,"txParams":{"from":"0x5b1cbd5636d484bf1cb6927a9425db9e7dc73ce4","gas":"0x5208","gasPrice":"0x4a817c800","to":"0x81b7e08f65bdf5648606c89998a9cc8164397647","value":"0xde0b6b3a7640000"}},
      {"id":2699829174766090,"time":1522381785750,"status":"unapproved","metamaskNetworkId":"1","loadingDefaults":false,"txParams":{"from":"0x5b1cbd5636d484bf1cb6927a9425db9e7dc73ce4","to":"0xf45d68f31b3c9ac84ff0d07b86c59b753a60b1e3","value":"0x0","gas":"0xcf08","gasPrice":"0x5f5e100"},"history":[{"id":2699829174766090,"time":1522381785750,"status":"unapproved","metamaskNetworkId":"1","loadingDefaults":true,"txParams":{"from":"0x5b1cbd5636d484bf1cb6927a9425db9e7dc73ce4","to":"0xf45d68f31b3c9ac84ff0d07b86c59b753a60b1e3","value":"0x0","gas":"0xcf08","gasPrice":"0x5f5e100"}},[{"op":"replace","path":"/loadingDefaults","value":false},{"op":"add","path":"/gasPriceSpecified","value":true},{"op":"add","path":"/gasLimitSpecified","value":true},{"op":"add","path":"/estimatedGas","value":"0xcf08"}]],"gasPriceSpecified":true,"gasLimitSpecified":true,"estimatedGas":"0xcf08"}
    ],
    "unapprovedTxs": {"2699829174766090":{"id":2699829174766090,"time":1522381785750,"status":"unapproved","metamaskNetworkId":"1","loadingDefaults":false,"txParams":{"from":"0x5b1cbd5636d484bf1cb6927a9425db9e7dc73ce4","to":"0xf45d68f31b3c9ac84ff0d07b86c59b753a60b1e3","value":"0x0","gas":"0xcf08","gasPrice":"0x5f5e100"},"history":[{"id":2699829174766090,"time":1522381785750,"status":"unapproved","metamaskNetworkId":"1","loadingDefaults":true,"txParams":{"from":"0x5b1cbd5636d484bf1cb6927a9425db9e7dc73ce4","to":"0xf45d68f31b3c9ac84ff0d07b86c59b753a60b1e3","value":"0x0","gas":"0xcf08","gasPrice":"0x5f5e100"}},[{"op":"replace","path":"/loadingDefaults","value":false},{"op":"add","path":"/gasPriceSpecified","value":true},{"op":"add","path":"/gasLimitSpecified","value":true},{"op":"add","path":"/estimatedGas","value":"0xcf08"}]],"gasPriceSpecified":true,"gasLimitSpecified":true,"estimatedGas":"0xcf08"}},
    "unapprovedMsgs": {"2315363930841932":{"id":2315363930841932,"msgParams":{"from":"0x5b1cbd5636d484bf1cb6927a9425db9e7dc73ce4","data":"0x879a053d4800c6354e76c7985a865d2922c82fb5b3f4577b2fe08b998954f2e0"},"time":1522378539686,"status":"unapproved","type":"eth_sign"}},
    "unapprovedMsgCount": 0,
    "unapprovedPersonalMsgs": {},
    "unapprovedPersonalMsgCount": 0,
    "keyringTypes": [
      "Simple Key Pair",
      "HD Key Tree"
    ],
    "keyrings": [
      {
        "type": "HD Key Tree",
        "accounts": [
          "0xfdea65c8e26263f6d9a1b5de9555d2931a33b825",
          "0xc5b8dbac4c1d3f152cdeb400e2313f309c410acb",
          "0x2f8d4a878cfa04a6e60d46362f5644deab66572d"
        ]
      },
      {
        "type": "Simple Key Pair",
        "accounts": [
          "0xd85a4b6a394794842887b8284293d69163007bbb"
        ]
      }
    ],
    "selectedAddress": "0xd85a4b6a394794842887b8284293d69163007bbb",
    "provider": {
      "type": "testnet"
    },
    "shapeShiftTxList": [{"depositAddress":"34vJ3AfmNcLiziA4VFgEVcQTwxVLD1qkke","depositType":"BTC","key":"shapeshift","response":{"status":"no_deposits","address":"34vJ3AfmNcLiziA4VFgEVcQTwxVLD1qkke"},"time":1522377459106}],
    "lostAccounts": [],
    "send": {},
    "currentLocale": "en"
  },
  "appState": {
    "menuOpen": false,
    "currentView": {
      "name": "confTx",
      "detailView": null,
      "context": 0
    },
    "accountDetail": {
      "subview": "transactions"
    },
    "modal": {
      "modalState": {},
      "previousModalState": {}
    },
    "transForward": true,
    "isLoading": false,
    "warning": null,
    "scrollToBottom": false,
    "forgottenPassword": null
  },
  "identities": {},
  "send": {
    "fromDropdownOpen": false,
    "toDropdownOpen": false,
    "errors": {}
  }
}
