[
  {
    "nonce": "0xc",
    "initialTransaction": {
      "id": 4243712234858512,
      "time": 1589314601567,
      "status": "confirmed",
      "metamaskNetworkId": "4",
      "loadingDefaults": false,
      "txParams": {
        "from": "0x9eca64466f257793eaa52fcfff5066894b76a149",
        "to": "0xffe5bc4e8f1f969934d773fa67da095d2e491a97",
        "nonce": "0xc",
        "value": "0xde0b6b3a7640000",
        "gas": "0x5208",
        "gasPrice": "0x2540be400"
      },
      "origin": "metamask",
      "type": "sentEther",
      "nonceDetails": {
        "params": {
          "highestLocallyConfirmed": 12,
          "highestSuggested": 12,
          "nextNetworkNonce": 12
        },
        "local": {
          "name": "local",
          "nonce": 12,
          "details": {
            "startPoint": 12,
            "highest": 12
          }
        },
        "network": {
          "name": "network",
          "nonce": 12,
          "details": {
            "blockNumber": "0x62d5dc",
            "baseCount": 12
          }
        }
      },
      "r": "0xe0b79a8e33b15460ea79b05a5fb16bc067a796592eeb4edc5007c88615c12595",
      "s": "0x1c834a25f1df07af5122996a40e99e554a40dc971a25041bc6e31638846c4f58",
      "v": "0x2c",
      "rawTx": "0xf86c0c8502540be40082520894ffe5bc4e8f1f969934d773fa67da095d2e491a97880de0b6b3a7640000802ca0e0b79a8e33b15460ea79b05a5fb16bc067a796592eeb4edc5007c88615c12595a01c834a25f1df07af5122996a40e99e554a40dc971a25041bc6e31638846c4f58",
      "hash": "0x06bb79b856f5eb67025e4c4ffff44bca26ae135d1c3e6bd9a4193f422dcecca2",
      "submittedTime": 1589314602908,
      "txReceipt": {
        "blockHash": "0xb9d2d71153b66146fde74b14b1c1ffc0588eb4a02ff464e32a4db9ae4bbfad8a",
        "blockNumber": "62d5de",
        "contractAddress": null,
        "cumulativeGasUsed": "5208",
        "from": "0x9eca64466f257793eaa52fcfff5066894b76a149",
        "gasUsed": "5208",
        "logs": [],
        "logsBloom": "0x00000000000000000000000000000000000000000000000000000000000000000000000000000000000000000000000000000000000000000000000000000000000000000000000000000000000000000000000000000000000000000000000000000000000000000000000000000000000000000000000000000000000000000000000000000000000000000000000000000000000000000000000000000000000000000000000000000000000000000000000000000000000000000000000000000000000000000000000000000000000000000000000000000000000000000000000000000000000000000000000000000000000000000000000000000000",
        "status": "0x1",
        "to": "0xffe5bc4e8f1f969934d773fa67da095d2e491a97",
        "transactionHash": "0x06bb79b856f5eb67025e4c4ffff44bca26ae135d1c3e6bd9a4193f422dcecca2",
        "transactionIndex": "0"
      }
    },
    "primaryTransaction": {
      "id": 4243712234858512,
      "time": 1589314601567,
      "status": "confirmed",
      "metamaskNetworkId": "4",
      "loadingDefaults": false,
      "txParams": {
        "from": "0x9eca64466f257793eaa52fcfff5066894b76a149",
        "to": "0xffe5bc4e8f1f969934d773fa67da095d2e491a97",
        "nonce": "0xc",
        "value": "0xde0b6b3a7640000",
        "gas": "0x5208",
        "gasPrice": "0x2540be400"
      },
      "origin": "metamask",
      "type": "sentEther",
      "nonceDetails": {
        "params": {
          "highestLocallyConfirmed": 12,
          "highestSuggested": 12,
          "nextNetworkNonce": 12
        },
        "local": {
          "name": "local",
          "nonce": 12,
          "details": {
            "startPoint": 12,
            "highest": 12
          }
        },
        "network": {
          "name": "network",
          "nonce": 12,
          "details": {
            "blockNumber": "0x62d5dc",
            "baseCount": 12
          }
        }
      },
      "r": "0xe0b79a8e33b15460ea79b05a5fb16bc067a796592eeb4edc5007c88615c12595",
      "s": "0x1c834a25f1df07af5122996a40e99e554a40dc971a25041bc6e31638846c4f58",
      "v": "0x2c",
      "rawTx": "0xf86c0c8502540be40082520894ffe5bc4e8f1f969934d773fa67da095d2e491a97880de0b6b3a7640000802ca0e0b79a8e33b15460ea79b05a5fb16bc067a796592eeb4edc5007c88615c12595a01c834a25f1df07af5122996a40e99e554a40dc971a25041bc6e31638846c4f58",
      "hash": "0x06bb79b856f5eb67025e4c4ffff44bca26ae135d1c3e6bd9a4193f422dcecca2",
      "submittedTime": 1589314602908,
      "txReceipt": {
        "blockHash": "0xb9d2d71153b66146fde74b14b1c1ffc0588eb4a02ff464e32a4db9ae4bbfad8a",
        "blockNumber": "62d5de",
        "contractAddress": null,
        "cumulativeGasUsed": "5208",
        "from": "0x9eca64466f257793eaa52fcfff5066894b76a149",
        "gasUsed": "5208",
        "logs": [],
        "logsBloom": "0x00000000000000000000000000000000000000000000000000000000000000000000000000000000000000000000000000000000000000000000000000000000000000000000000000000000000000000000000000000000000000000000000000000000000000000000000000000000000000000000000000000000000000000000000000000000000000000000000000000000000000000000000000000000000000000000000000000000000000000000000000000000000000000000000000000000000000000000000000000000000000000000000000000000000000000000000000000000000000000000000000000000000000000000000000000000",
        "status": "0x1",
        "to": "0xffe5bc4e8f1f969934d773fa67da095d2e491a97",
        "transactionHash": "0x06bb79b856f5eb67025e4c4ffff44bca26ae135d1c3e6bd9a4193f422dcecca2",
        "transactionIndex": "0"
      }
    },
    "hasRetried": false,
    "hasCancelled": false
  },
  {
    "nonce": "0xb",
    "initialTransaction": {
      "id": 4243712234858507,
      "time": 1589314355872,
      "status": "confirmed",
      "metamaskNetworkId": "4",
      "loadingDefaults": false,
      "txParams": {
        "from": "0x9eca64466f257793eaa52fcfff5066894b76a149",
        "to": "0x0ccc8aeeaf5ce790f3b448325981a143fdef8848",
        "nonce": "0xb",
        "value": "0x1bc16d674ec80000",
        "gas": "0x5208",
        "gasPrice": "0x2540be400"
      },
      "origin": "metamask",
      "type": "sentEther",
      "nonceDetails": {
        "params": {
          "highestLocallyConfirmed": 0,
          "highestSuggested": 10,
          "nextNetworkNonce": 10
        },
        "local": {
          "name": "local",
          "nonce": 11,
          "details": {
            "startPoint": 10,
            "highest": 11
          }
        },
        "network": {
          "name": "network",
          "nonce": 10,
          "details": {
            "blockNumber": "0x62d5cc",
            "baseCount": 10
          }
        }
      },
      "r": "0xe6828baea0a93a52779ffa5ea55e927781fb7d4be58107a29c75d314d433d055",
      "s": "0x10613f984c57b8928d8ed9fce16ddda5746767e5f68f4c8fc29542e86a61f458",
      "v": "0x2b",
      "rawTx": "0xf86c0b8502540be400825208940ccc8aeeaf5ce790f3b448325981a143fdef8848881bc16d674ec80000802ba0e6828baea0a93a52779ffa5ea55e927781fb7d4be58107a29c75d314d433d055a010613f984c57b8928d8ed9fce16ddda5746767e5f68f4c8fc29542e86a61f458",
      "hash": "0x2ccb9e2c0c64399ebc5c4ac70bebc5b537248458dee6cbce32df4b50c9e73bbd",
      "submittedTime": 1589314356907,
      "txReceipt": {
        "blockHash": "0xfa3c8b63aaba2ef64ab328af72811dd5110a7641bd435cc6fbdfd9ea0d334542",
        "blockNumber": "62d5ce",
        "contractAddress": null,
        "cumulativeGasUsed": "5208",
        "from": "0x9eca64466f257793eaa52fcfff5066894b76a149",
        "gasUsed": "5208",
        "logs": [],
        "logsBloom": "0x00000000000000000000000000000000000000000000000000000000000000000000000000000000000000000000000000000000000000000000000000000000000000000000000000000000000000000000000000000000000000000000000000000000000000000000000000000000000000000000000000000000000000000000000000000000000000000000000000000000000000000000000000000000000000000000000000000000000000000000000000000000000000000000000000000000000000000000000000000000000000000000000000000000000000000000000000000000000000000000000000000000000000000000000000000000",
        "status": "0x1",
        "to": "0x0ccc8aeeaf5ce790f3b448325981a143fdef8848",
        "transactionHash": "0x2ccb9e2c0c64399ebc5c4ac70bebc5b537248458dee6cbce32df4b50c9e73bbd",
        "transactionIndex": "0"
      }
    },
    "primaryTransaction": {
      "id": 4243712234858507,
      "time": 1589314355872,
      "status": "confirmed",
      "metamaskNetworkId": "4",
      "loadingDefaults": false,
      "txParams": {
        "from": "0x9eca64466f257793eaa52fcfff5066894b76a149",
        "to": "0x0ccc8aeeaf5ce790f3b448325981a143fdef8848",
        "nonce": "0xb",
        "value": "0x1bc16d674ec80000",
        "gas": "0x5208",
        "gasPrice": "0x2540be400"
      },
      "origin": "metamask",
      "type": "sentEther",
      "nonceDetails": {
        "params": {
          "highestLocallyConfirmed": 0,
          "highestSuggested": 10,
          "nextNetworkNonce": 10
        },
        "local": {
          "name": "local",
          "nonce": 11,
          "details": {
            "startPoint": 10,
            "highest": 11
          }
        },
        "network": {
          "name": "network",
          "nonce": 10,
          "details": {
            "blockNumber": "0x62d5cc",
            "baseCount": 10
          }
        }
      },
      "r": "0xe6828baea0a93a52779ffa5ea55e927781fb7d4be58107a29c75d314d433d055",
      "s": "0x10613f984c57b8928d8ed9fce16ddda5746767e5f68f4c8fc29542e86a61f458",
      "v": "0x2b",
      "rawTx": "0xf86c0b8502540be400825208940ccc8aeeaf5ce790f3b448325981a143fdef8848881bc16d674ec80000802ba0e6828baea0a93a52779ffa5ea55e927781fb7d4be58107a29c75d314d433d055a010613f984c57b8928d8ed9fce16ddda5746767e5f68f4c8fc29542e86a61f458",
      "hash": "0x2ccb9e2c0c64399ebc5c4ac70bebc5b537248458dee6cbce32df4b50c9e73bbd",
      "submittedTime": 1589314356907,
      "txReceipt": {
        "blockHash": "0xfa3c8b63aaba2ef64ab328af72811dd5110a7641bd435cc6fbdfd9ea0d334542",
        "blockNumber": "62d5ce",
        "contractAddress": null,
        "cumulativeGasUsed": "5208",
        "from": "0x9eca64466f257793eaa52fcfff5066894b76a149",
        "gasUsed": "5208",
        "logs": [],
        "logsBloom": "0x00000000000000000000000000000000000000000000000000000000000000000000000000000000000000000000000000000000000000000000000000000000000000000000000000000000000000000000000000000000000000000000000000000000000000000000000000000000000000000000000000000000000000000000000000000000000000000000000000000000000000000000000000000000000000000000000000000000000000000000000000000000000000000000000000000000000000000000000000000000000000000000000000000000000000000000000000000000000000000000000000000000000000000000000000000000",
        "status": "0x1",
        "to": "0x0ccc8aeeaf5ce790f3b448325981a143fdef8848",
        "transactionHash": "0x2ccb9e2c0c64399ebc5c4ac70bebc5b537248458dee6cbce32df4b50c9e73bbd",
        "transactionIndex": "0"
      }
    },
    "hasRetried": false,
    "hasCancelled": false
  },
  {
    "nonce": "0xa",
    "initialTransaction": {
      "id": 4243712234858506,
      "time": 1589314345433,
      "status": "confirmed",
      "metamaskNetworkId": "4",
      "loadingDefaults": false,
      "txParams": {
        "from": "0x9eca64466f257793eaa52fcfff5066894b76a149",
        "to": "0xffe5bc4e8f1f969934d773fa67da095d2e491a97",
        "nonce": "0xa",
        "value": "0x1bc16d674ec80000",
        "gas": "0x5208",
        "gasPrice": "0x306dc4200"
      },
      "origin": "metamask",
      "type": "sentEther",
      "nonceDetails": {
        "params": {
          "highestLocallyConfirmed": 0,
          "highestSuggested": 10,
          "nextNetworkNonce": 10
        },
        "local": {
          "name": "local",
          "nonce": 10,
          "details": {
            "startPoint": 10,
            "highest": 10
          }
        },
        "network": {
          "name": "network",
          "nonce": 10,
          "details": {
            "blockNumber": "0x62d5cb",
            "baseCount": 10
          }
        }
      },
      "r": "0x94b120a1df80be3dfad057b7ccac866b6b7583b63d61e5b021811c8b7ffc9a3b",
      "s": "0x1778de08e29a4c8dfc3aa3e2c2338e98494ebd2c380c901d0dfba95126dde65f",
      "v": "0x2c",
      "rawTx": "0xf86c0a850306dc420082520894ffe5bc4e8f1f969934d773fa67da095d2e491a97881bc16d674ec80000802ca094b120a1df80be3dfad057b7ccac866b6b7583b63d61e5b021811c8b7ffc9a3ba01778de08e29a4c8dfc3aa3e2c2338e98494ebd2c380c901d0dfba95126dde65f",
      "hash": "0x52604fd8d329894a747d8cf521cbbc4adb35eb9a91e3a3ba3ee32d8729c16536",
      "submittedTime": 1589314348235,
      "firstRetryBlockNumber": "0x62d5cc",
      "txReceipt": {
        "blockHash": "0x3d61a8d8a0e79e0e7a3a9206bf62f9a8e47791c527cd85cb4fcf800609234115",
        "blockNumber": "62d5cd",
        "contractAddress": null,
        "cumulativeGasUsed": "a810",
        "from": "0x9eca64466f257793eaa52fcfff5066894b76a149",
        "gasUsed": "5208",
        "logs": [],
        "logsBloom": "0x00000000000000000000000000000000000000000000000000000000000000000000000000000000000000000000000000000000000000000000000000000000000000000000000000000000000000000000000000000000000000000000000000000000000000000000000000000000000000000000000000000000000000000000000000000000000000000000000000000000000000000000000000000000000000000000000000000000000000000000000000000000000000000000000000000000000000000000000000000000000000000000000000000000000000000000000000000000000000000000000000000000000000000000000000000000",
        "status": "0x1",
        "to": "0xffe5bc4e8f1f969934d773fa67da095d2e491a97",
        "transactionHash": "0x52604fd8d329894a747d8cf521cbbc4adb35eb9a91e3a3ba3ee32d8729c16536",
        "transactionIndex": "1"
      }
    },
    "primaryTransaction": {
      "id": 4243712234858506,
      "time": 1589314345433,
      "status": "confirmed",
      "metamaskNetworkId": "4",
      "loadingDefaults": false,
      "txParams": {
        "from": "0x9eca64466f257793eaa52fcfff5066894b76a149",
        "to": "0xffe5bc4e8f1f969934d773fa67da095d2e491a97",
        "nonce": "0xa",
        "value": "0x1bc16d674ec80000",
        "gas": "0x5208",
        "gasPrice": "0x306dc4200"
      },
      "origin": "metamask",
      "type": "sentEther",
      "nonceDetails": {
        "params": {
          "highestLocallyConfirmed": 0,
          "highestSuggested": 10,
          "nextNetworkNonce": 10
        },
        "local": {
          "name": "local",
          "nonce": 10,
          "details": {
            "startPoint": 10,
            "highest": 10
          }
        },
        "network": {
          "name": "network",
          "nonce": 10,
          "details": {
            "blockNumber": "0x62d5cb",
            "baseCount": 10
          }
        }
      },
      "r": "0x94b120a1df80be3dfad057b7ccac866b6b7583b63d61e5b021811c8b7ffc9a3b",
      "s": "0x1778de08e29a4c8dfc3aa3e2c2338e98494ebd2c380c901d0dfba95126dde65f",
      "v": "0x2c",
      "rawTx": "0xf86c0a850306dc420082520894ffe5bc4e8f1f969934d773fa67da095d2e491a97881bc16d674ec80000802ca094b120a1df80be3dfad057b7ccac866b6b7583b63d61e5b021811c8b7ffc9a3ba01778de08e29a4c8dfc3aa3e2c2338e98494ebd2c380c901d0dfba95126dde65f",
      "hash": "0x52604fd8d329894a747d8cf521cbbc4adb35eb9a91e3a3ba3ee32d8729c16536",
      "submittedTime": 1589314348235,
      "firstRetryBlockNumber": "0x62d5cc",
      "txReceipt": {
        "blockHash": "0x3d61a8d8a0e79e0e7a3a9206bf62f9a8e47791c527cd85cb4fcf800609234115",
        "blockNumber": "62d5cd",
        "contractAddress": null,
        "cumulativeGasUsed": "a810",
        "from": "0x9eca64466f257793eaa52fcfff5066894b76a149",
        "gasUsed": "5208",
        "logs": [],
        "logsBloom": "0x00000000000000000000000000000000000000000000000000000000000000000000000000000000000000000000000000000000000000000000000000000000000000000000000000000000000000000000000000000000000000000000000000000000000000000000000000000000000000000000000000000000000000000000000000000000000000000000000000000000000000000000000000000000000000000000000000000000000000000000000000000000000000000000000000000000000000000000000000000000000000000000000000000000000000000000000000000000000000000000000000000000000000000000000000000000",
        "status": "0x1",
        "to": "0xffe5bc4e8f1f969934d773fa67da095d2e491a97",
        "transactionHash": "0x52604fd8d329894a747d8cf521cbbc4adb35eb9a91e3a3ba3ee32d8729c16536",
        "transactionIndex": "1"
      }
    },
    "hasRetried": false,
    "hasCancelled": false
  },
  {
    "initialTransaction": {
      "blockNumber": "6477257",
      "id": 4243712234858505,
      "metamaskNetworkId": "4",
      "status": "confirmed",
      "time": 1589314295000,
      "txParams": {
        "from": "0x31b98d14007bdee637298086988a0bbd31184523",
        "gas": "0x5208",
        "gasPrice": "0x3b9aca00",
        "nonce": "0x56540",
        "to": "0x9eca64466f257793eaa52fcfff5066894b76a149",
        "value": "0x1043561a882930000"
      },
      "hash": "0x5ca26d1cdcabef1ac2ad5b2b38604c9ced65d143efc7525f848c46f28e0e4116",
      "type": "incoming"
    },
    "primaryTransaction": {
      "blockNumber": "6477257",
      "id": 4243712234858505,
      "metamaskNetworkId": "4",
      "status": "confirmed",
      "time": 1589314295000,
      "txParams": {
        "from": "0x31b98d14007bdee637298086988a0bbd31184523",
        "gas": "0x5208",
        "gasPrice": "0x3b9aca00",
        "nonce": "0x56540",
        "to": "0x9eca64466f257793eaa52fcfff5066894b76a149",
        "value": "0x1043561a882930000"
      },
      "hash": "0x5ca26d1cdcabef1ac2ad5b2b38604c9ced65d143efc7525f848c46f28e0e4116",
      "type": "incoming"
    },
    "hasRetried": false,
    "hasCancelled": false
  },
  {
    "initialTransaction": {
      "blockNumber": "6454493",
      "id": 4243712234858475,
      "metamaskNetworkId": "4",
      "status": "confirmed",
      "time": 1588972833000,
      "txParams": {
        "from": "0x9eca64466f257793eaa52fcfff5066894b76a149",
        "gas": "0x5208",
        "gasPrice": "0x24e160300",
        "nonce": "0x8",
        "to": "0x9eca64466f257793eaa52fcfff5066894b76a149",
        "value": "0x0"
      },
      "hash": "0xa42b2b433e5bd2616b52e30792aedb6a3c374a752a95d43d99e2a8b143937889",
      "type": "incoming"
    },
    "primaryTransaction": {
      "blockNumber": "6454493",
      "id": 4243712234858475,
      "metamaskNetworkId": "4",
      "status": "confirmed",
      "time": 1588972833000,
      "txParams": {
        "from": "0x9eca64466f257793eaa52fcfff5066894b76a149",
        "gas": "0x5208",
        "gasPrice": "0x24e160300",
        "nonce": "0x8",
        "to": "0x9eca64466f257793eaa52fcfff5066894b76a149",
        "value": "0x0"
      },
      "hash": "0xa42b2b433e5bd2616b52e30792aedb6a3c374a752a95d43d99e2a8b143937889",
      "type": "incoming"
    },
    "hasRetried": false,
    "hasCancelled": false
  },
  {
    "initialTransaction": {
      "blockNumber": "6195526",
      "id": 4243712234858466,
      "metamaskNetworkId": "4",
      "status": "confirmed",
      "time": 1585087013000,
      "txParams": {
        "from": "0xee014609ef9e09776ac5fe00bdbfef57bcdefebb",
        "gas": "0x5208",
        "gasPrice": "0x77359400",
        "nonce": "0x3",
        "to": "0x9eca64466f257793eaa52fcfff5066894b76a149",
        "value": "0xde0b6b3a7640000"
      },
      "hash": "0xbcb195f393f4468945b4045cd41bcdbc2f19ad75ae92a32cf153a3004e42009a",
      "type": "incoming"
    },
    "primaryTransaction": {
      "blockNumber": "6195526",
      "id": 4243712234858466,
      "metamaskNetworkId": "4",
      "status": "confirmed",
      "time": 1585087013000,
      "txParams": {
        "from": "0xee014609ef9e09776ac5fe00bdbfef57bcdefebb",
        "gas": "0x5208",
        "gasPrice": "0x77359400",
        "nonce": "0x3",
        "to": "0x9eca64466f257793eaa52fcfff5066894b76a149",
        "value": "0xde0b6b3a7640000"
      },
      "hash": "0xbcb195f393f4468945b4045cd41bcdbc2f19ad75ae92a32cf153a3004e42009a",
      "type": "incoming"
    },
    "hasRetried": false,
    "hasCancelled": false
  },
  {
    "initialTransaction": {
      "blockNumber": "6195527",
      "id": 4243712234858467,
      "metamaskNetworkId": "4",
      "status": "confirmed",
      "time": 1585088013000,
      "txParams": {
        "from": "0xee014609ef9e09776ac5fe00bdbfef57bcdefebb",
        "gas": "0x5208",
        "gasPrice": "0x77359400",
        "nonce": "0x3",
        "to": "0xabca64466f257793eaa52fcfff5066894b76a149",
        "value": "0xde0b6b3a7640000"
      },
      "hash": "0xbcb195f393f4468945b4045cd41bcdbc2f19ad75ae92a32cf153a3004e42009a",
      "destinationTokenSymbol": "ABC",
      "sourceTokenSymbol": "ETH",
      "type": "swap"
    },
    "primaryTransaction": {
      "blockNumber": "6195527",
      "id": 4243712234858467,
      "metamaskNetworkId": "4",
      "status": "confirmed",
      "time": 1585088013000,
      "txParams": {
        "from": "0xee014609ef9e09776ac5fe00bdbfef57bcdefebb",
        "gas": "0x5208",
        "gasPrice": "0x77359400",
        "nonce": "0x3",
        "to": "0xabca64466f257793eaa52fcfff5066894b76a149",
        "value": "0xde0b6b3a7640000"
      },
      "hash": "0xbcb195f393f4468945b4045cd41bcdbc2f19ad75ae92a32cf153a3004e42009a",
      "type": "swap",
      "destinationTokenSymbol": "ABC",
      "destinationTokenAddress": "0xabca64466f257793eaa52fcfff5066894b76a149",
      "sourceTokenSymbol": "ETH"
    },
    "hasRetried": false,
    "hasCancelled": false
  }
]
