{
  "hasCancelled": false,
  "hasRetried": false,
  "initialTransaction": {
    "actionId": "1750466510323.613",
    "chainId": "0xa",
    "hash": "0x5599b6a84528c4f2d21c6af9cf9f5cf1f96fe1a4cd90dd21fd98ef6bb2e7b1f2",
    "history": [],
    "id": "854126e0-4e38-11f0-88da-53f7e315d450",
    "networkClientId": "e4987d4e-e8f4-4bc7-ab8e-331b4c9ccfec",
    "origin": "metamask",
    "postTxBalance": "0x1028fcda9ba542",
    "preTxBalance": "0x102a2a24fea3bf",
    "sendFlowHistory": [],
    "status": "confirmed",
    "submittedTime": 1750466512312,
    "time": 1750466510926,
    "type": "swap",
    "userEditedGasLimit": false,
    "userFeeLevel": "medium",
    "v": "0x1",
    "verifiedOnBlockchain": true
  },
  "nonce": "0x1d",
  "primaryTransaction": {
    "actionId": "1750466510323.613",
    "baseFeePerGas": "0x1e8aed",
    "blockTimestamp": "0x6855ffd1",
    "chainId": "0xa",
    "defaultGasEstimates": {
      "estimateType": "medium",
      "gas": "0xbc9e6",
      "maxFeePerGas": "0x1327642",
      "maxPriorityFeePerGas": "0x186a0"
    },
    "firstRetryBlockNumber": "0x8311301",
    "gasFeeEstimates": {
      "high": {
        "maxFeePerGas": "0x1327642",
        "maxPriorityFeePerGas": "0x186a0"
      },
      "low": {
        "maxFeePerGas": "0x3e835a",
        "maxPriorityFeePerGas": "0x186a0"
      },
      "medium": {
        "maxFeePerGas": "0x5d01b7",
        "maxPriorityFeePerGas": "0x186a0"
      },
      "type": "fee-market"
    },
    "gasFeeEstimatesLoaded": true,
    "gasLimitNoBuffer": "0xbc9e6",
    "hash": "0x5599b6a84528c4f2d21c6af9cf9f5cf1f96fe1a4cd90dd21fd98ef6bb2e7b1f2",
    "history": [
      {
        "actionId": "1750466510323.613",
        "chainId": "0xa",
        "defaultGasEstimates": {
          "estimateType": "medium",
          "gas": "0xbc9e6",
          "maxFeePerGas": "0x1327642",
          "maxPriorityFeePerGas": "0x186a0"
        },
        "gasLimitNoBuffer": "0xbc9e6",
        "id": "854126e0-4e38-11f0-88da-53f7e315d450",
        "layer1GasFee": "0x03685f243d",
        "networkClientId": "e4987d4e-e8f4-4bc7-ab8e-331b4c9ccfec",
        "origin": "metamask",
        "sendFlowHistory": [],
        "status": "unapproved",
        "time": 1750466510926,
        "txParams": {
          "data": "0x5f57552900000000000000000000000000000000000000000000000000000000000000800000000000000000000000000b2c639c533813f4aa9d7837caf62653d097ff8500000000000000000000000000000000000000000000000000000000001e848000000000000000000000000000000000000000000000000000000000000000c0000000000000000000000000000000000000000000000000000000000000000430785632000000000000000000000000000000000000000000000000000000000000000000000000000000000000000000000000000000000000000000000b000000000000000000000000000b2c639c533813f4aa9d7837caf62653d097ff850000000000000000000000006fd9d7ad17242c41f7131d257212c54a0e81669100000000000000000000000000000000000000000000000000000000001e402400000000000000000000000000000000000000000000000003dc3380eac7bc310000000000000000000000000000000000000000000000000000000000000120000000000000000000000000000000000000000000000000000000000000445c00000000000000000000000045d047bfcb1055b9dd531ef9605e8f0b0dc285f3000000000000000000000000000000000000000000000000000000000000000000000000000000000000000000000000000000000000000000000000000009c42213bc0b000000000000000000000000d8014f15a920bf9edfdb87159ee10cadc07fcb530000000000000000000000000b2c639c533813f4aa9d7837caf62653d097ff8500000000000000000000000000000000000000000000000000000000001e4024000000000000000000000000d8014f15a920bf9edfdb87159ee10cadc07fcb5300000000000000000000000000000000000000000000000000000000000000a000000000000000000000000000000000000000000000000000000000000008e41fff991f0000000000000000000000000a2854fbbd9b3ef66f17d47284e7f899b95093300000000000000000000000006fd9d7ad17242c41f7131d257212c54a0e81669100000000000000000000000000000000000000000000000003d73c3ff29adb4000000000000000000000000000000000000000000000000000000000000000a0454ac303527530076c6cd15c0000000000000000000000000000000000000000000000000000000000000000000000000000000000000000000000000000000600000000000000000000000000000000000000000000000000000000000000c0000000000000000000000000000000000000000000000000000000000000028000000000000000000000000000000000000000000000000000000000000003a000000000000000000000000000000000000000000000000000000000000004c000000000000000000000000000000000000000000000000000000000000005e00000000000000000000000000000000000000000000000000000000000000700000000000000000000000000000000000000000000000000000000000000018422ce6ede000000000000000000000000d8014f15a920bf9edfdb87159ee10cadc07fcb5300000000000000000000000000000000000000000000000000000000000001000000000000000000000000000b2c639c533813f4aa9d7837caf62653d097ff8500000000000000000000000000000000000000000000000000000000001e4024000000000000000000000000000000000000000000000000000000000000000000000000000000000000000000000000000000000000000000000000685600ec00000000000000000000000000000000000000000000000000000000000001600000000000000000000000000000000000000000000000000000000000000000000000000000000000000000000000000000000000000000000000000000002c0b2c639c533813f4aa9d7837caf62653d097ff8500000064da10009cbd5d07dd0cecc66161fc93d7c9000da1000000000000000000000000000000000000000000000000000000000000000000000000000000000000000000000000000000000000000000000000000000000000000000000000000000000000000000000000000000000000000000000000000000000000000000000000000000e48d68a156000000000000000000000000d8014f15a920bf9edfdb87159ee10cadc07fcb5300000000000000000000000000000000000000000000000000000000000015e600000000000000000000000000000000000000000000000000000000000000800000000000000000000000000000000000000000000000000000000000000000000000000000000000000000000000000000000000000000000000000000002cda10009cbd5d07dd0cecc66161fc93d7c9000da100000bb86fd9d7ad17242c41f7131d257212c54a0e81669100000000000000000000000000000000000000000000000000000000000000000000000000000000000000000000000000000000000000000000000000000000000000000000000000000000000000e48d68a156000000000000000000000000d8014f15a920bf9edfdb87159ee10cadc07fcb53000000000000000000000000000000000000000000000000000000000000271000000000000000000000000000000000000000000000000000000000000000800000000000000000000000000000000000000000000000000000000000000000000000000000000000000000000000000000000000000000000000000000002cda10009cbd5d07dd0cecc66161fc93d7c9000da10000006494b008aa00579c1307b0ef2c499ad98a8ce58e5800000000000000000000000000000000000000000000000000000000000000000000000000000000000000000000000000000000000000000000000000000000000000000000000000000000000000e48d68a156000000000000000000000000d8014f15a920bf9edfdb87159ee10cadc07fcb5300000000000000000000000000000000000000000000000000000000000014b700000000000000000000000000000000000000000000000000000000000000800000000000000000000000000000000000000000000000000000000000000000000000000000000000000000000000000000000000000000000000000000002c94b008aa00579c1307b0ef2c499ad98a8ce58e58000001f4420000000000000000000000000000000000000600000000000000000000000000000000000000000000000000000000000000000000000000000000000000000000000000000000000000000000000000000000000000000000000000000000000000e48d68a156000000000000000000000000d8014f15a920bf9edfdb87159ee10cadc07fcb53000000000000000000000000000000000000000000000000000000000000271000000000000000000000000000000000000000000000000000000000000000800000000000000000000000000000000000000000000000000000000000000000000000000000000000000000000000000000000000000000000000000000002c94b008aa00579c1307b0ef2c499ad98a8ce58e5800000bb86fd9d7ad17242c41f7131d257212c54a0e81669100000000000000000000000000000000000000000000000000000000000000000000000000000000000000000000000000000000000000000000000000000000000000000000000000000000000000e48d68a156000000000000000000000000d8014f15a920bf9edfdb87159ee10cadc07fcb53000000000000000000000000000000000000000000000000000000000000271000000000000000000000000000000000000000000000000000000000000000800000000000000000000000000000000000000000000000000000000000000000000000000000000000000000000000000000000000000000000000000000002c420000000000000000000000000000000000000600000bb86fd9d7ad17242c41f7131d257212c54a0e816691000000000000000000000000000000000000000000000000000000000000000000000000000000000000000000000000000000000000000000000000000000000000000000000000000000000000000000000000000000000000000000000000000000000000000020b3a170f453ec4401ac41e4b6c1327d67c044b280d13a8f8ac4d1b3f669d1736e5cbaa6e0d0c2f08b7a4332362d94e16a2c5e405925e02155eee91c137935c91b",
          "from": "0x30e8ccad5a980bdf30447f8c2c48e70989d9d294",
          "gas": "0xbc9e6",
          "gasLimit": "0x772582",
          "maxFeePerGas": "0x1327642",
          "maxPriorityFeePerGas": "0x186a0",
          "to": "0x9dda6ef3d919c9bc8885d5560999a3640431e8e6",
          "type": "0x2",
          "value": "0x0"
        },
        "type": "swap",
        "userEditedGasLimit": false,
        "userFeeLevel": "medium",
        "verifiedOnBlockchain": false
      },
      [
        {
          "note": "TransactionController#approveTransaction - Transaction approved",
          "op": "replace",
          "path": "/txParams/gasLimit",
          "timestamp": 1750466511598,
          "value": "0xbc9e6"
        },
        {
          "op": "add",
          "path": "/txParams/nonce",
          "value": "0x1d"
        },
        {
          "op": "replace",
          "path": "/status",
          "value": "approved"
        }
      ],
      [
        {
          "note": "TransactionController#approveTransaction - RawTransaction added",
          "op": "replace",
          "path": "/status",
          "timestamp": 1750466511609,
          "value": "signed"
        },
        {
          "op": "add",
          "path": "/r",
          "value": "0xc885eed1c858a427a8e480fc16897ae968bd9cfe16c384c75f3da1f8d1ccef9d"
        },
        {
          "op": "add",
          "path": "/s",
          "value": "0x2273c49d64fcf18a82923ce84faba4d9de5e20d8512090482494b15cae26f89f"
        },
        {
          "op": "add",
          "path": "/v",
          "value": "0x1"
        },
        {
          "op": "add",
          "path": "/rawTx",
          "value": "0x02f90c910a1d830186a08401327642830bc9e6949dda6ef3d919c9bc8885d5560999a3640431e8e680b90c255f57552900000000000000000000000000000000000000000000000000000000000000800000000000000000000000000b2c639c533813f4aa9d7837caf62653d097ff8500000000000000000000000000000000000000000000000000000000001e848000000000000000000000000000000000000000000000000000000000000000c0000000000000000000000000000000000000000000000000000000000000000430785632000000000000000000000000000000000000000000000000000000000000000000000000000000000000000000000000000000000000000000000b000000000000000000000000000b2c639c533813f4aa9d7837caf62653d097ff850000000000000000000000006fd9d7ad17242c41f7131d257212c54a0e81669100000000000000000000000000000000000000000000000000000000001e402400000000000000000000000000000000000000000000000003dc3380eac7bc310000000000000000000000000000000000000000000000000000000000000120000000000000000000000000000000000000000000000000000000000000445c00000000000000000000000045d047bfcb1055b9dd531ef9605e8f0b0dc285f3000000000000000000000000000000000000000000000000000000000000000000000000000000000000000000000000000000000000000000000000000009c42213bc0b000000000000000000000000d8014f15a920bf9edfdb87159ee10cadc07fcb530000000000000000000000000b2c639c533813f4aa9d7837caf62653d097ff8500000000000000000000000000000000000000000000000000000000001e4024000000000000000000000000d8014f15a920bf9edfdb87159ee10cadc07fcb5300000000000000000000000000000000000000000000000000000000000000a000000000000000000000000000000000000000000000000000000000000008e41fff991f0000000000000000000000000a2854fbbd9b3ef66f17d47284e7f899b95093300000000000000000000000006fd9d7ad17242c41f7131d257212c54a0e81669100000000000000000000000000000000000000000000000003d73c3ff29adb4000000000000000000000000000000000000000000000000000000000000000a0454ac303527530076c6cd15c0000000000000000000000000000000000000000000000000000000000000000000000000000000000000000000000000000000600000000000000000000000000000000000000000000000000000000000000c0000000000000000000000000000000000000000000000000000000000000028000000000000000000000000000000000000000000000000000000000000003a000000000000000000000000000000000000000000000000000000000000004c000000000000000000000000000000000000000000000000000000000000005e00000000000000000000000000000000000000000000000000000000000000700000000000000000000000000000000000000000000000000000000000000018422ce6ede000000000000000000000000d8014f15a920bf9edfdb87159ee10cadc07fcb5300000000000000000000000000000000000000000000000000000000000001000000000000000000000000000b2c639c533813f4aa9d7837caf62653d097ff8500000000000000000000000000000000000000000000000000000000001e4024000000000000000000000000000000000000000000000000000000000000000000000000000000000000000000000000000000000000000000000000685600ec00000000000000000000000000000000000000000000000000000000000001600000000000000000000000000000000000000000000000000000000000000000000000000000000000000000000000000000000000000000000000000000002c0b2c639c533813f4aa9d7837caf62653d097ff8500000064da10009cbd5d07dd0cecc66161fc93d7c9000da1000000000000000000000000000000000000000000000000000000000000000000000000000000000000000000000000000000000000000000000000000000000000000000000000000000000000000000000000000000000000000000000000000000000000000000000000000000e48d68a156000000000000000000000000d8014f15a920bf9edfdb87159ee10cadc07fcb5300000000000000000000000000000000000000000000000000000000000015e600000000000000000000000000000000000000000000000000000000000000800000000000000000000000000000000000000000000000000000000000000000000000000000000000000000000000000000000000000000000000000000002cda10009cbd5d07dd0cecc66161fc93d7c9000da100000bb86fd9d7ad17242c41f7131d257212c54a0e81669100000000000000000000000000000000000000000000000000000000000000000000000000000000000000000000000000000000000000000000000000000000000000000000000000000000000000e48d68a156000000000000000000000000d8014f15a920bf9edfdb87159ee10cadc07fcb53000000000000000000000000000000000000000000000000000000000000271000000000000000000000000000000000000000000000000000000000000000800000000000000000000000000000000000000000000000000000000000000000000000000000000000000000000000000000000000000000000000000000002cda10009cbd5d07dd0cecc66161fc93d7c9000da10000006494b008aa00579c1307b0ef2c499ad98a8ce58e5800000000000000000000000000000000000000000000000000000000000000000000000000000000000000000000000000000000000000000000000000000000000000000000000000000000000000e48d68a156000000000000000000000000d8014f15a920bf9edfdb87159ee10cadc07fcb5300000000000000000000000000000000000000000000000000000000000014b700000000000000000000000000000000000000000000000000000000000000800000000000000000000000000000000000000000000000000000000000000000000000000000000000000000000000000000000000000000000000000000002c94b008aa00579c1307b0ef2c499ad98a8ce58e58000001f4420000000000000000000000000000000000000600000000000000000000000000000000000000000000000000000000000000000000000000000000000000000000000000000000000000000000000000000000000000000000000000000000000000e48d68a156000000000000000000000000d8014f15a920bf9edfdb87159ee10cadc07fcb53000000000000000000000000000000000000000000000000000000000000271000000000000000000000000000000000000000000000000000000000000000800000000000000000000000000000000000000000000000000000000000000000000000000000000000000000000000000000000000000000000000000000002c94b008aa00579c1307b0ef2c499ad98a8ce58e5800000bb86fd9d7ad17242c41f7131d257212c54a0e81669100000000000000000000000000000000000000000000000000000000000000000000000000000000000000000000000000000000000000000000000000000000000000000000000000000000000000e48d68a156000000000000000000000000d8014f15a920bf9edfdb87159ee10cadc07fcb53000000000000000000000000000000000000000000000000000000000000271000000000000000000000000000000000000000000000000000000000000000800000000000000000000000000000000000000000000000000000000000000000000000000000000000000000000000000000000000000000000000000000002c420000000000000000000000000000000000000600000bb86fd9d7ad17242c41f7131d257212c54a0e816691000000000000000000000000000000000000000000000000000000000000000000000000000000000000000000000000000000000000000000000000000000000000000000000000000000000000000000000000000000000000000000000000000000000000000020b3a170f453ec4401ac41e4b6c1327d67c044b280d13a8f8ac4d1b3f669d1736e5cbaa6e0d0c2f08b7a4332362d94e16a2c5e405925e02155eee91c137935c91bc001a0c885eed1c858a427a8e480fc16897ae968bd9cfe16c384c75f3da1f8d1ccef9da02273c49d64fcf18a82923ce84faba4d9de5e20d8512090482494b15cae26f89f"
        }
      ],
      [
        {
          "note": "TransactionController#approveTransaction - Transaction submitted",
          "op": "replace",
          "path": "/txParams/maxFeePerGas",
          "timestamp": 1750466512312,
          "value": "0x5d01b7"
        },
        {
          "op": "replace",
          "path": "/status",
          "value": "submitted"
        },
        {
          "op": "add",
          "path": "/gasFeeEstimates",
          "value": {
            "high": {
              "maxFeePerGas": "0x1327642",
              "maxPriorityFeePerGas": "0x186a0"
            },
            "low": {
              "maxFeePerGas": "0x3e835a",
              "maxPriorityFeePerGas": "0x186a0"
            },
            "medium": {
              "maxFeePerGas": "0x5d01b7",
              "maxPriorityFeePerGas": "0x186a0"
            },
            "type": "fee-market"
          }
        },
        {
          "op": "add",
          "path": "/gasFeeEstimatesLoaded",
          "value": true
        },
        {
          "op": "add",
          "path": "/hash",
          "value": "0x5599b6a84528c4f2d21c6af9cf9f5cf1f96fe1a4cd90dd21fd98ef6bb2e7b1f2"
        },
        {
          "op": "add",
          "path": "/submittedTime",
          "value": 1750466512312
        },
        {
          "op": "add",
          "path": "/preTxBalance",
          "value": "0x102a2a24fea3bf"
        }
      ],
      [
        {
          "note": "PendingTransactionTracker:#isResubmitDue - First retry block number set",
          "op": "add",
          "path": "/firstRetryBlockNumber",
          "timestamp": 1750466513461,
          "value": "0x8311301"
        }
      ],
      [
        {
          "note": "PendingTransactionTracker:#onTransactionConfirmed - Transaction confirmed",
          "op": "replace",
          "path": "/verifiedOnBlockchain",
          "timestamp": 1750466516022,
          "value": true
        },
        {
          "op": "replace",
          "path": "/status",
          "value": "confirmed"
        },
        {
          "op": "add",
          "path": "/baseFeePerGas",
          "value": "0x1e8aed"
        },
        {
          "op": "add",
          "path": "/blockTimestamp",
          "value": "0x6855ffd1"
        },
        {
          "op": "add",
          "path": "/txReceipt",
          "value": {
            "blockHash": "0xcf4cc08b4e5d985c26d1204c875ce77a50f3540e7df6211824f528110093c40b",
            "blockNumber": "0x831130c",
            "contractAddress": null,
            "cumulativeGasUsed": "0xc22e13",
            "effectiveGasPrice": "0x20118d",
            "from": "0x30e8ccad5a980bdf30447f8c2c48e70989d9d294",
            "gasUsed": "0x86fe2",
            "l1BaseFeeScalar": "0x146b",
            "l1BlobBaseFee": "0x1",
            "l1BlobBaseFeeScalar": "0xf79c5",
            "l1Fee": "0x3156874f7",
            "l1GasPrice": "0x10b0a84f",
            "l1GasUsed": "0x2358",
            "status": "0x1",
            "to": "0x9dda6ef3d919c9bc8885d5560999a3640431e8e6",
            "transactionHash": "0x5599b6a84528c4f2d21c6af9cf9f5cf1f96fe1a4cd90dd21fd98ef6bb2e7b1f2",
            "transactionIndex": "0x12",
            "type": "0x2"
          }
        }
      ],
      [
        {
          "note": "TransactionController#updatePostTransactionBalance - Add post transaction balance",
          "op": "add",
          "path": "/postTxBalance",
          "timestamp": 1750466516623,
          "value": "0x1028fcda9ba542"
        }
      ]
    ],
    "id": "854126e0-4e38-11f0-88da-53f7e315d450",
    "layer1GasFee": "0x03685f243d",
    "networkClientId": "e4987d4e-e8f4-4bc7-ab8e-331b4c9ccfec",
    "origin": "metamask",
    "postTxBalance": "0x1028fcda9ba542",
    "preTxBalance": "0x102a2a24fea3bf",
    "sendFlowHistory": [],
    "status": "confirmed",
    "submittedTime": 1750466512312,
    "time": 1750466510926,
    "type": "swap",
    "userEditedGasLimit": false,
    "userFeeLevel": "medium",
    "v": "0x1",
    "verifiedOnBlockchain": true
  },
  "transactions": [
    {
      "actionId": "1750466510323.613",
      "baseFeePerGas": "0x1e8aed",
      "blockTimestamp": "0x6855ffd1",
      "chainId": "0xa",
      "defaultGasEstimates": {
        "estimateType": "medium",
        "gas": "0xbc9e6",
        "maxFeePerGas": "0x1327642",
        "maxPriorityFeePerGas": "0x186a0"
      },
      "firstRetryBlockNumber": "0x8311301",
      "gasFeeEstimates": {
        "high": {
          "maxFeePerGas": "0x1327642",
          "maxPriorityFeePerGas": "0x186a0"
        },
        "low": {
          "maxFeePerGas": "0x3e835a",
          "maxPriorityFeePerGas": "0x186a0"
        },
        "medium": {
          "maxFeePerGas": "0x5d01b7",
          "maxPriorityFeePerGas": "0x186a0"
        },
        "type": "fee-market"
      },
      "gasFeeEstimatesLoaded": true,
      "gasLimitNoBuffer": "0xbc9e6",
      "hash": "0x5599b6a84528c4f2d21c6af9cf9f5cf1f96fe1a4cd90dd21fd98ef6bb2e7b1f2",
      "history": [
        {
          "actionId": "1750466510323.613",
          "chainId": "0xa",
          "defaultGasEstimates": {
            "estimateType": "medium",
            "gas": "0xbc9e6",
            "maxFeePerGas": "0x1327642",
            "maxPriorityFeePerGas": "0x186a0"
          },
          "gasLimitNoBuffer": "0xbc9e6",
          "id": "854126e0-4e38-11f0-88da-53f7e315d450",
          "layer1GasFee": "0x03685f243d",
          "networkClientId": "e4987d4e-e8f4-4bc7-ab8e-331b4c9ccfec",
          "origin": "metamask",
          "sendFlowHistory": [],
          "status": "unapproved",
          "time": 1750466510926,
          "type": "swap",
          "userEditedGasLimit": false,
          "userFeeLevel": "medium",
          "verifiedOnBlockchain": false
        },
        [
          {
            "note": "TransactionController#approveTransaction - Transaction approved",
            "op": "replace",
            "path": "/txParams/gasLimit",
            "timestamp": 1750466511598,
            "value": "0xbc9e6"
          },
          {
            "op": "add",
            "path": "/txParams/nonce",
            "value": "0x1d"
          },
          {
            "op": "replace",
            "path": "/status",
            "value": "approved"
          }
        ],
        [
          {
            "note": "TransactionController#approveTransaction - RawTransaction added",
            "op": "replace",
            "path": "/status",
            "timestamp": 1750466511609,
            "value": "signed"
          },
          {
            "op": "add",
            "path": "/r",
            "value": "0xc885eed1c858a427a8e480fc16897ae968bd9cfe16c384c75f3da1f8d1ccef9d"
          },
          {
            "op": "add",
            "path": "/s",
            "value": "0x2273c49d64fcf18a82923ce84faba4d9de5e20d8512090482494b15cae26f89f"
          },
          {
            "op": "add",
            "path": "/v",
            "value": "0x1"
          },
          {
            "op": "add",
            "path": "/rawTx",
            "value": "0x02f90c910a1d830186a08401327642830bc9e6949dda6ef3d919c9bc8885d5560999a3640431e8e680b90c255f57552900000000000000000000000000000000000000000000000000000000000000800000000000000000000000000b2c639c533813f4aa9d7837caf62653d097ff8500000000000000000000000000000000000000000000000000000000001e848000000000000000000000000000000000000000000000000000000000000000c0000000000000000000000000000000000000000000000000000000000000000430785632000000000000000000000000000000000000000000000000000000000000000000000000000000000000000000000000000000000000000000000b000000000000000000000000000b2c639c533813f4aa9d7837caf62653d097ff850000000000000000000000006fd9d7ad17242c41f7131d257212c54a0e81669100000000000000000000000000000000000000000000000000000000001e402400000000000000000000000000000000000000000000000003dc3380eac7bc310000000000000000000000000000000000000000000000000000000000000120000000000000000000000000000000000000000000000000000000000000445c00000000000000000000000045d047bfcb1055b9dd531ef9605e8f0b0dc285f3000000000000000000000000000000000000000000000000000000000000000000000000000000000000000000000000000000000000000000000000000009c42213bc0b000000000000000000000000d8014f15a920bf9edfdb87159ee10cadc07fcb530000000000000000000000000b2c639c533813f4aa9d7837caf62653d097ff8500000000000000000000000000000000000000000000000000000000001e4024000000000000000000000000d8014f15a920bf9edfdb87159ee10cadc07fcb5300000000000000000000000000000000000000000000000000000000000000a000000000000000000000000000000000000000000000000000000000000008e41fff991f0000000000000000000000000a2854fbbd9b3ef66f17d47284e7f899b95093300000000000000000000000006fd9d7ad17242c41f7131d257212c54a0e81669100000000000000000000000000000000000000000000000003d73c3ff29adb4000000000000000000000000000000000000000000000000000000000000000a0454ac303527530076c6cd15c0000000000000000000000000000000000000000000000000000000000000000000000000000000000000000000000000000000600000000000000000000000000000000000000000000000000000000000000c0000000000000000000000000000000000000000000000000000000000000028000000000000000000000000000000000000000000000000000000000000003a000000000000000000000000000000000000000000000000000000000000004c000000000000000000000000000000000000000000000000000000000000005e00000000000000000000000000000000000000000000000000000000000000700000000000000000000000000000000000000000000000000000000000000018422ce6ede000000000000000000000000d8014f15a920bf9edfdb87159ee10cadc07fcb5300000000000000000000000000000000000000000000000000000000000001000000000000000000000000000b2c639c533813f4aa9d7837caf62653d097ff8500000000000000000000000000000000000000000000000000000000001e4024000000000000000000000000000000000000000000000000000000000000000000000000000000000000000000000000000000000000000000000000685600ec00000000000000000000000000000000000000000000000000000000000001600000000000000000000000000000000000000000000000000000000000000000000000000000000000000000000000000000000000000000000000000000002c0b2c639c533813f4aa9d7837caf62653d097ff8500000064da10009cbd5d07dd0cecc66161fc93d7c9000da1000000000000000000000000000000000000000000000000000000000000000000000000000000000000000000000000000000000000000000000000000000000000000000000000000000000000000000000000000000000000000000000000000000000000000000000000000000e48d68a156000000000000000000000000d8014f15a920bf9edfdb87159ee10cadc07fcb5300000000000000000000000000000000000000000000000000000000000015e600000000000000000000000000000000000000000000000000000000000000800000000000000000000000000000000000000000000000000000000000000000000000000000000000000000000000000000000000000000000000000000002cda10009cbd5d07dd0cecc66161fc93d7c9000da100000bb86fd9d7ad17242c41f7131d257212c54a0e81669100000000000000000000000000000000000000000000000000000000000000000000000000000000000000000000000000000000000000000000000000000000000000000000000000000000000000e48d68a156000000000000000000000000d8014f15a920bf9edfdb87159ee10cadc07fcb53000000000000000000000000000000000000000000000000000000000000271000000000000000000000000000000000000000000000000000000000000000800000000000000000000000000000000000000000000000000000000000000000000000000000000000000000000000000000000000000000000000000000002cda10009cbd5d07dd0cecc66161fc93d7c9000da10000006494b008aa00579c1307b0ef2c499ad98a8ce58e5800000000000000000000000000000000000000000000000000000000000000000000000000000000000000000000000000000000000000000000000000000000000000000000000000000000000000e48d68a156000000000000000000000000d8014f15a920bf9edfdb87159ee10cadc07fcb5300000000000000000000000000000000000000000000000000000000000014b700000000000000000000000000000000000000000000000000000000000000800000000000000000000000000000000000000000000000000000000000000000000000000000000000000000000000000000000000000000000000000000002c94b008aa00579c1307b0ef2c499ad98a8ce58e58000001f4420000000000000000000000000000000000000600000000000000000000000000000000000000000000000000000000000000000000000000000000000000000000000000000000000000000000000000000000000000000000000000000000000000e48d68a156000000000000000000000000d8014f15a920bf9edfdb87159ee10cadc07fcb53000000000000000000000000000000000000000000000000000000000000271000000000000000000000000000000000000000000000000000000000000000800000000000000000000000000000000000000000000000000000000000000000000000000000000000000000000000000000000000000000000000000000002c94b008aa00579c1307b0ef2c499ad98a8ce58e5800000bb86fd9d7ad17242c41f7131d257212c54a0e81669100000000000000000000000000000000000000000000000000000000000000000000000000000000000000000000000000000000000000000000000000000000000000000000000000000000000000e48d68a156000000000000000000000000d8014f15a920bf9edfdb87159ee10cadc07fcb53000000000000000000000000000000000000000000000000000000000000271000000000000000000000000000000000000000000000000000000000000000800000000000000000000000000000000000000000000000000000000000000000000000000000000000000000000000000000000000000000000000000000002c420000000000000000000000000000000000000600000bb86fd9d7ad17242c41f7131d257212c54a0e816691000000000000000000000000000000000000000000000000000000000000000000000000000000000000000000000000000000000000000000000000000000000000000000000000000000000000000000000000000000000000000000000000000000000000000020b3a170f453ec4401ac41e4b6c1327d67c044b280d13a8f8ac4d1b3f669d1736e5cbaa6e0d0c2f08b7a4332362d94e16a2c5e405925e02155eee91c137935c91bc001a0c885eed1c858a427a8e480fc16897ae968bd9cfe16c384c75f3da1f8d1ccef9da02273c49d64fcf18a82923ce84faba4d9de5e20d8512090482494b15cae26f89f"
          }
        ],
        [
          {
            "note": "TransactionController#approveTransaction - Transaction submitted",
            "op": "replace",
            "path": "/txParams/maxFeePerGas",
            "timestamp": 1750466512312,
            "value": "0x5d01b7"
          },
          {
            "op": "replace",
            "path": "/status",
            "value": "submitted"
          },
          {
            "op": "add",
            "path": "/gasFeeEstimates",
            "value": {
              "high": {
                "maxFeePerGas": "0x1327642",
                "maxPriorityFeePerGas": "0x186a0"
              },
              "low": {
                "maxFeePerGas": "0x3e835a",
                "maxPriorityFeePerGas": "0x186a0"
              },
              "medium": {
                "maxFeePerGas": "0x5d01b7",
                "maxPriorityFeePerGas": "0x186a0"
              },
              "type": "fee-market"
            }
          },
          {
            "op": "add",
            "path": "/gasFeeEstimatesLoaded",
            "value": true
          },
          {
            "op": "add",
            "path": "/hash",
            "value": "0x5599b6a84528c4f2d21c6af9cf9f5cf1f96fe1a4cd90dd21fd98ef6bb2e7b1f2"
          },
          {
            "op": "add",
            "path": "/submittedTime",
            "value": 1750466512312
          },
          {
            "op": "add",
            "path": "/preTxBalance",
            "value": "0x102a2a24fea3bf"
          }
        ],
        [
          {
            "note": "PendingTransactionTracker:#isResubmitDue - First retry block number set",
            "op": "add",
            "path": "/firstRetryBlockNumber",
            "timestamp": 1750466513461,
            "value": "0x8311301"
          }
        ],
        [
          {
            "note": "PendingTransactionTracker:#onTransactionConfirmed - Transaction confirmed",
            "op": "replace",
            "path": "/verifiedOnBlockchain",
            "timestamp": 1750466516022,
            "value": true
          },
          {
            "op": "replace",
            "path": "/status",
            "value": "confirmed"
          },
          {
            "op": "add",
            "path": "/baseFeePerGas",
            "value": "0x1e8aed"
          },
          {
            "op": "add",
            "path": "/blockTimestamp",
            "value": "0x6855ffd1"
          },
          {
            "op": "add",
            "path": "/txReceipt",
            "value": {
              "blockHash": "0xcf4cc08b4e5d985c26d1204c875ce77a50f3540e7df6211824f528110093c40b",
              "blockNumber": "0x831130c",
              "contractAddress": null,
              "cumulativeGasUsed": "0xc22e13",
              "effectiveGasPrice": "0x20118d",
              "from": "0x30e8ccad5a980bdf30447f8c2c48e70989d9d294",
              "gasUsed": "0x86fe2",
              "l1BaseFeeScalar": "0x146b",
              "l1BlobBaseFee": "0x1",
              "l1BlobBaseFeeScalar": "0xf79c5",
              "l1Fee": "0x3156874f7",
              "l1GasPrice": "0x10b0a84f",
              "l1GasUsed": "0x2358",
              "status": "0x1",
              "to": "0x9dda6ef3d919c9bc8885d5560999a3640431e8e6",
              "transactionHash": "0x5599b6a84528c4f2d21c6af9cf9f5cf1f96fe1a4cd90dd21fd98ef6bb2e7b1f2",
              "transactionIndex": "0x12",
              "type": "0x2"
            }
          }
        ],
        [
          {
            "note": "TransactionController#updatePostTransactionBalance - Add post transaction balance",
            "op": "add",
            "path": "/postTxBalance",
            "timestamp": 1750466516623,
            "value": "0x1028fcda9ba542"
          }
        ]
      ],
      "id": "854126e0-4e38-11f0-88da-53f7e315d450",
      "layer1GasFee": "0x03685f243d",
      "networkClientId": "e4987d4e-e8f4-4bc7-ab8e-331b4c9ccfec",
      "origin": "metamask",
      "postTxBalance": "0x1028fcda9ba542",
      "preTxBalance": "0x102a2a24fea3bf",
      "sendFlowHistory": [],
      "status": "confirmed",
      "submittedTime": 1750466512312,
      "time": 1750466510926,
      "type": "swap",
      "userEditedGasLimit": false,
      "userFeeLevel": "medium",
      "v": "0x1",
      "verifiedOnBlockchain": true
    }
  ]
}
